{
  "_format": "hh-sol-artifact-1",
  "contractName": "LazyNFT",
  "sourceName": "contracts/LazyNFT.sol",
  "abi": [
    {
      "inputs": [
        {
          "internalType": "address payable",
          "name": "minter",
          "type": "address"
        }
      ],
      "stateMutability": "nonpayable",
      "type": "constructor"
    },
    {
      "anonymous": false,
      "inputs": [
        {
          "indexed": true,
          "internalType": "address",
          "name": "owner",
          "type": "address"
        },
        {
          "indexed": true,
          "internalType": "address",
          "name": "approved",
          "type": "address"
        },
        {
          "indexed": true,
          "internalType": "uint256",
          "name": "tokenId",
          "type": "uint256"
        }
      ],
      "name": "Approval",
      "type": "event"
    },
    {
      "anonymous": false,
      "inputs": [
        {
          "indexed": true,
          "internalType": "address",
          "name": "owner",
          "type": "address"
        },
        {
          "indexed": true,
          "internalType": "address",
          "name": "operator",
          "type": "address"
        },
        {
          "indexed": false,
          "internalType": "bool",
          "name": "approved",
          "type": "bool"
        }
      ],
      "name": "ApprovalForAll",
      "type": "event"
    },
    {
      "anonymous": false,
      "inputs": [
        {
          "indexed": true,
          "internalType": "bytes32",
          "name": "role",
          "type": "bytes32"
        },
        {
          "indexed": true,
          "internalType": "bytes32",
          "name": "previousAdminRole",
          "type": "bytes32"
        },
        {
          "indexed": true,
          "internalType": "bytes32",
          "name": "newAdminRole",
          "type": "bytes32"
        }
      ],
      "name": "RoleAdminChanged",
      "type": "event"
    },
    {
      "anonymous": false,
      "inputs": [
        {
          "indexed": true,
          "internalType": "bytes32",
          "name": "role",
          "type": "bytes32"
        },
        {
          "indexed": true,
          "internalType": "address",
          "name": "account",
          "type": "address"
        },
        {
          "indexed": true,
          "internalType": "address",
          "name": "sender",
          "type": "address"
        }
      ],
      "name": "RoleGranted",
      "type": "event"
    },
    {
      "anonymous": false,
      "inputs": [
        {
          "indexed": true,
          "internalType": "bytes32",
          "name": "role",
          "type": "bytes32"
        },
        {
          "indexed": true,
          "internalType": "address",
          "name": "account",
          "type": "address"
        },
        {
          "indexed": true,
          "internalType": "address",
          "name": "sender",
          "type": "address"
        }
      ],
      "name": "RoleRevoked",
      "type": "event"
    },
    {
      "anonymous": false,
      "inputs": [
        {
          "indexed": true,
          "internalType": "address",
          "name": "from",
          "type": "address"
        },
        {
          "indexed": true,
          "internalType": "address",
          "name": "to",
          "type": "address"
        },
        {
          "indexed": true,
          "internalType": "uint256",
          "name": "tokenId",
          "type": "uint256"
        }
      ],
      "name": "Transfer",
      "type": "event"
    },
    {
      "inputs": [],
      "name": "DEFAULT_ADMIN_ROLE",
      "outputs": [
        {
          "internalType": "bytes32",
          "name": "",
          "type": "bytes32"
        }
      ],
      "stateMutability": "view",
      "type": "function"
    },
    {
      "inputs": [],
      "name": "MINTER_ROLE",
      "outputs": [
        {
          "internalType": "bytes32",
          "name": "",
          "type": "bytes32"
        }
      ],
      "stateMutability": "view",
      "type": "function"
    },
    {
      "inputs": [
        {
          "internalType": "address",
          "name": "to",
          "type": "address"
        },
        {
          "internalType": "uint256",
          "name": "tokenId",
          "type": "uint256"
        }
      ],
      "name": "approve",
      "outputs": [],
      "stateMutability": "nonpayable",
      "type": "function"
    },
    {
      "inputs": [],
      "name": "availableToWithdraw",
      "outputs": [
        {
          "internalType": "uint256",
          "name": "",
          "type": "uint256"
        }
      ],
      "stateMutability": "view",
      "type": "function"
    },
    {
      "inputs": [
        {
          "internalType": "address",
          "name": "owner",
          "type": "address"
        }
      ],
      "name": "balanceOf",
      "outputs": [
        {
          "internalType": "uint256",
          "name": "",
          "type": "uint256"
        }
      ],
      "stateMutability": "view",
      "type": "function"
    },
    {
      "inputs": [
        {
          "internalType": "uint256",
          "name": "tokenId",
          "type": "uint256"
        }
      ],
      "name": "getApproved",
      "outputs": [
        {
          "internalType": "address",
          "name": "",
          "type": "address"
        }
      ],
      "stateMutability": "view",
      "type": "function"
    },
    {
      "inputs": [],
      "name": "getChainID",
      "outputs": [
        {
          "internalType": "uint256",
          "name": "",
          "type": "uint256"
        }
      ],
      "stateMutability": "view",
      "type": "function"
    },
    {
      "inputs": [
        {
          "internalType": "bytes32",
          "name": "role",
          "type": "bytes32"
        }
      ],
      "name": "getRoleAdmin",
      "outputs": [
        {
          "internalType": "bytes32",
          "name": "",
          "type": "bytes32"
        }
      ],
      "stateMutability": "view",
      "type": "function"
    },
    {
      "inputs": [
        {
          "internalType": "bytes32",
          "name": "role",
          "type": "bytes32"
        },
        {
          "internalType": "address",
          "name": "account",
          "type": "address"
        }
      ],
      "name": "grantRole",
      "outputs": [],
      "stateMutability": "nonpayable",
      "type": "function"
    },
    {
      "inputs": [
        {
          "internalType": "bytes32",
          "name": "role",
          "type": "bytes32"
        },
        {
          "internalType": "address",
          "name": "account",
          "type": "address"
        }
      ],
      "name": "hasRole",
      "outputs": [
        {
          "internalType": "bool",
          "name": "",
          "type": "bool"
        }
      ],
      "stateMutability": "view",
      "type": "function"
    },
    {
      "inputs": [
        {
          "internalType": "address",
          "name": "owner",
          "type": "address"
        },
        {
          "internalType": "address",
          "name": "operator",
          "type": "address"
        }
      ],
      "name": "isApprovedForAll",
      "outputs": [
        {
          "internalType": "bool",
          "name": "",
          "type": "bool"
        }
      ],
      "stateMutability": "view",
      "type": "function"
    },
    {
      "inputs": [],
      "name": "name",
      "outputs": [
        {
          "internalType": "string",
          "name": "",
          "type": "string"
        }
      ],
      "stateMutability": "view",
      "type": "function"
    },
    {
      "inputs": [
        {
          "internalType": "uint256",
          "name": "tokenId",
          "type": "uint256"
        }
      ],
      "name": "ownerOf",
      "outputs": [
        {
          "internalType": "address",
          "name": "",
          "type": "address"
        }
      ],
      "stateMutability": "view",
      "type": "function"
    },
    {
      "inputs": [
        {
          "internalType": "address",
          "name": "redeemer",
          "type": "address"
        },
        {
          "components": [
            {
              "internalType": "uint256",
              "name": "tokenId",
              "type": "uint256"
            },
            {
              "internalType": "uint256",
              "name": "minPrice",
              "type": "uint256"
            },
            {
              "internalType": "string",
              "name": "uri",
              "type": "string"
            },
            {
              "internalType": "bytes",
              "name": "signature",
              "type": "bytes"
            }
          ],
          "internalType": "struct LazyNFT.NFTVoucher",
          "name": "voucher",
          "type": "tuple"
        }
      ],
      "name": "redeem",
      "outputs": [
        {
          "internalType": "uint256",
          "name": "",
          "type": "uint256"
        }
      ],
      "stateMutability": "payable",
      "type": "function"
    },
    {
      "inputs": [
        {
          "internalType": "bytes32",
          "name": "role",
          "type": "bytes32"
        },
        {
          "internalType": "address",
          "name": "account",
          "type": "address"
        }
      ],
      "name": "renounceRole",
      "outputs": [],
      "stateMutability": "nonpayable",
      "type": "function"
    },
    {
      "inputs": [
        {
          "internalType": "bytes32",
          "name": "role",
          "type": "bytes32"
        },
        {
          "internalType": "address",
          "name": "account",
          "type": "address"
        }
      ],
      "name": "revokeRole",
      "outputs": [],
      "stateMutability": "nonpayable",
      "type": "function"
    },
    {
      "inputs": [
        {
          "internalType": "address",
          "name": "from",
          "type": "address"
        },
        {
          "internalType": "address",
          "name": "to",
          "type": "address"
        },
        {
          "internalType": "uint256",
          "name": "tokenId",
          "type": "uint256"
        }
      ],
      "name": "safeTransferFrom",
      "outputs": [],
      "stateMutability": "nonpayable",
      "type": "function"
    },
    {
      "inputs": [
        {
          "internalType": "address",
          "name": "from",
          "type": "address"
        },
        {
          "internalType": "address",
          "name": "to",
          "type": "address"
        },
        {
          "internalType": "uint256",
          "name": "tokenId",
          "type": "uint256"
        },
        {
          "internalType": "bytes",
          "name": "_data",
          "type": "bytes"
        }
      ],
      "name": "safeTransferFrom",
      "outputs": [],
      "stateMutability": "nonpayable",
      "type": "function"
    },
    {
      "inputs": [
        {
          "internalType": "address",
          "name": "operator",
          "type": "address"
        },
        {
          "internalType": "bool",
          "name": "approved",
          "type": "bool"
        }
      ],
      "name": "setApprovalForAll",
      "outputs": [],
      "stateMutability": "nonpayable",
      "type": "function"
    },
    {
      "inputs": [
        {
          "internalType": "bytes4",
          "name": "interfaceId",
          "type": "bytes4"
        }
      ],
      "name": "supportsInterface",
      "outputs": [
        {
          "internalType": "bool",
          "name": "",
          "type": "bool"
        }
      ],
      "stateMutability": "view",
      "type": "function"
    },
    {
      "inputs": [],
      "name": "symbol",
      "outputs": [
        {
          "internalType": "string",
          "name": "",
          "type": "string"
        }
      ],
      "stateMutability": "view",
      "type": "function"
    },
    {
      "inputs": [
        {
          "internalType": "uint256",
          "name": "tokenId",
          "type": "uint256"
        }
      ],
      "name": "tokenURI",
      "outputs": [
        {
          "internalType": "string",
          "name": "",
          "type": "string"
        }
      ],
      "stateMutability": "view",
      "type": "function"
    },
    {
      "inputs": [
        {
          "internalType": "address",
          "name": "from",
          "type": "address"
        },
        {
          "internalType": "address",
          "name": "to",
          "type": "address"
        },
        {
          "internalType": "uint256",
          "name": "tokenId",
          "type": "uint256"
        }
      ],
      "name": "transferFrom",
      "outputs": [],
      "stateMutability": "nonpayable",
      "type": "function"
    },
    {
      "inputs": [],
      "name": "withdraw",
      "outputs": [],
      "stateMutability": "nonpayable",
      "type": "function"
    }
  ],
  "bytecode": "0x6101206040523480156200001257600080fd5b506040516200287e3803806200287e8339810160408190526200003591620002fa565b6040518060400160405280600f81526020016e2630bd3ca7232a16ab37bab1b432b960891b815250604051806040016040528060018152602001603160f81b8152506040518060400160405280600781526020016613185e9e53919560ca1b815250604051806040016040528060038152602001622620ad60e91b8152508160009080519060200190620000cb92919062000254565b508051620000e190600190602084019062000254565b5050825160209384012082519284019290922060c083815260e08290524660a0818152604080517f8b73c3c69bb8fe3d512ecc4cf759cc79239f7b179b0ffacaa9a75d522b39400f818a018190528183019890985260608101959095526080808601939093523085830152805180860390920182529390920190925280519401939093209092526101005250620001997f9f2df0fed2c77648de5860a4cc508cd0818c85b8b8a1ab4ceeef8d981c8956a682620001a0565b5062000369565b620001ac8282620001b0565b5050565b60008281526007602090815260408083206001600160a01b038516845290915290205460ff16620001ac5760008281526007602090815260408083206001600160a01b03851684529091529020805460ff19166001179055620002103390565b6001600160a01b0316816001600160a01b0316837f2f8788117e7eff1d82e926ec794901d17c78024a50270940304540a733656f0d60405160405180910390a45050565b82805462000262906200032c565b90600052602060002090601f016020900481019282620002865760008555620002d1565b82601f10620002a157805160ff1916838001178555620002d1565b82800160010185558215620002d1579182015b82811115620002d1578251825591602001919060010190620002b4565b50620002df929150620002e3565b5090565b5b80821115620002df5760008155600101620002e4565b6000602082840312156200030d57600080fd5b81516001600160a01b03811681146200032557600080fd5b9392505050565b600181811c908216806200034157607f821691505b602082108114156200036357634e487b7160e01b600052602260045260246000fd5b50919050565b60805160a05160c05160e051610100516124d0620003ae6000396000611d2501526000611d7401526000611d4f01526000611cd301526000611cfc01526124d06000f3fe60806040526004361061014b5760003560e01c80636352211e116100b6578063b88d4fde1161006f578063b88d4fde146103a4578063c87b56dd146103c4578063d5391393146103e4578063d547741f14610418578063e322ad2b14610438578063e985e9c51461045a57600080fd5b80636352211e146102fa57806370a082311461031a57806391d148541461033a57806395d89b411461035a578063a217fddf1461036f578063a22cb4651461038457600080fd5b8063248a9ca311610108578063248a9ca3146102425780632f2ff15d1461027257806336568abe146102925780633ccfd60b146102b257806342842e0e146102c7578063564b81ef146102e757600080fd5b806301ffc9a71461015057806306fdde0314610185578063081812fc146101a757806308708a78146101df578063095ea7b31461020057806323b872dd14610222575b600080fd5b34801561015c57600080fd5b5061017061016b366004611e74565b6104a3565b60405190151581526020015b60405180910390f35b34801561019157600080fd5b5061019a6104c3565b60405161017c9190611ee9565b3480156101b357600080fd5b506101c76101c2366004611efc565b610555565b6040516001600160a01b03909116815260200161017c565b6101f26101ed366004611f31565b6105e2565b60405190815260200161017c565b34801561020c57600080fd5b5061022061021b366004611f86565b61075d565b005b34801561022e57600080fd5b5061022061023d366004611fb0565b610873565b34801561024e57600080fd5b506101f261025d366004611efc565b60009081526007602052604090206001015490565b34801561027e57600080fd5b5061022061028d366004611fec565b6108a4565b34801561029e57600080fd5b506102206102ad366004611fec565b6108ca565b3480156102be57600080fd5b50610220610948565b3480156102d357600080fd5b506102206102e2366004611fb0565b610a0d565b3480156102f357600080fd5b50466101f2565b34801561030657600080fd5b506101c7610315366004611efc565b610a28565b34801561032657600080fd5b506101f2610335366004612018565b610a9f565b34801561034657600080fd5b50610170610355366004611fec565b610b26565b34801561036657600080fd5b5061019a610b51565b34801561037b57600080fd5b506101f2600081565b34801561039057600080fd5b5061022061039f366004612033565b610b60565b3480156103b057600080fd5b506102206103bf36600461207a565b610c25565b3480156103d057600080fd5b5061019a6103df366004611efc565b610c5d565b3480156103f057600080fd5b506101f27f9f2df0fed2c77648de5860a4cc508cd0818c85b8b8a1ab4ceeef8d981c8956a681565b34801561042457600080fd5b50610220610433366004611fec565b610dd4565b34801561044457600080fd5b50336000908152600860205260409020546101f2565b34801561046657600080fd5b50610170610475366004612156565b6001600160a01b03918216600090815260056020908152604080832093909416825291909152205460ff1690565b60006104ae82610dfa565b806104bd57506104bd82610e4a565b92915050565b6060600080546104d290612180565b80601f01602080910402602001604051908101604052809291908181526020018280546104fe90612180565b801561054b5780601f106105205761010080835404028352916020019161054b565b820191906000526020600020905b81548152906001019060200180831161052e57829003601f168201915b5050505050905090565b600061056082610e6f565b6105c65760405162461bcd60e51b815260206004820152602c60248201527f4552433732313a20617070726f76656420717565727920666f72206e6f6e657860448201526b34b9ba32b73a103a37b5b2b760a11b60648201526084015b60405180910390fd5b506000908152600460205260409020546001600160a01b031690565b6000806105ee83610e8c565b905061061a7f9f2df0fed2c77648de5860a4cc508cd0818c85b8b8a1ab4ceeef8d981c8956a682610b26565b6106705760405162461bcd60e51b815260206004820152602160248201527f5369676e617475726520696e76616c6964206f7220756e617574686f72697a656044820152601960fa1b60648201526084016105bd565b82602001353410156106c45760405162461bcd60e51b815260206004820152601c60248201527f496e73756666696369656e742066756e647320746f2072656465656d0000000060448201526064016105bd565b6106cf818435610eec565b61071b83356106e160408601866121bb565b8080601f01602080910402602001604051908101604052809392919081815260200183838082843760009201919091525061101f92505050565b610727818585356110aa565b6001600160a01b0381166000908152600860205260408120805434929061074f90849061221f565b909155505091359392505050565b600061076882610a28565b9050806001600160a01b0316836001600160a01b031614156107d65760405162461bcd60e51b815260206004820152602160248201527f4552433732313a20617070726f76616c20746f2063757272656e74206f776e656044820152603960f91b60648201526084016105bd565b336001600160a01b03821614806107f257506107f28133610475565b6108645760405162461bcd60e51b815260206004820152603860248201527f4552433732313a20617070726f76652063616c6c6572206973206e6f74206f7760448201527f6e6572206e6f7220617070726f76656420666f7220616c6c000000000000000060648201526084016105bd565b61086e838361124a565b505050565b61087d33826112b8565b6108995760405162461bcd60e51b81526004016105bd90612237565b61086e8383836110aa565b6000828152600760205260409020600101546108c0813361139e565b61086e8383611402565b6001600160a01b038116331461093a5760405162461bcd60e51b815260206004820152602f60248201527f416363657373436f6e74726f6c3a2063616e206f6e6c792072656e6f756e636560448201526e103937b632b9903337b91039b2b63360891b60648201526084016105bd565b6109448282611488565b5050565b6109727f9f2df0fed2c77648de5860a4cc508cd0818c85b8b8a1ab4ceeef8d981c8956a633610b26565b6109ca5760405162461bcd60e51b8152602060048201526024808201527f4f6e6c7920617574686f72697a6564206d696e746572732063616e20776974686044820152636472617760e01b60648201526084016105bd565b3360008181526008602052604080822080549083905590519091839183156108fc0291849190818181858888f1935050505015801561086e573d6000803e3d6000fd5b61086e83838360405180602001604052806000815250610c25565b6000818152600260205260408120546001600160a01b0316806104bd5760405162461bcd60e51b815260206004820152602960248201527f4552433732313a206f776e657220717565727920666f72206e6f6e657869737460448201526832b73a103a37b5b2b760b91b60648201526084016105bd565b60006001600160a01b038216610b0a5760405162461bcd60e51b815260206004820152602a60248201527f4552433732313a2062616c616e636520717565727920666f7220746865207a65604482015269726f206164647265737360b01b60648201526084016105bd565b506001600160a01b031660009081526003602052604090205490565b60009182526007602090815260408084206001600160a01b0393909316845291905290205460ff1690565b6060600180546104d290612180565b6001600160a01b038216331415610bb95760405162461bcd60e51b815260206004820152601960248201527f4552433732313a20617070726f766520746f2063616c6c65720000000000000060448201526064016105bd565b3360008181526005602090815260408083206001600160a01b03871680855290835292819020805460ff191686151590811790915590519081529192917f17307eab39ab6107e8899845ad3d59bd9653f200f220920489ca2b5937696c31910160405180910390a35050565b610c2f33836112b8565b610c4b5760405162461bcd60e51b81526004016105bd90612237565b610c57848484846114ef565b50505050565b6060610c6882610e6f565b610cce5760405162461bcd60e51b815260206004820152603160248201527f45524337323155524953746f726167653a2055524920717565727920666f72206044820152703737b732bc34b9ba32b73a103a37b5b2b760791b60648201526084016105bd565b60008281526006602052604081208054610ce790612180565b80601f0160208091040260200160405190810160405280929190818152602001828054610d1390612180565b8015610d605780601f10610d3557610100808354040283529160200191610d60565b820191906000526020600020905b815481529060010190602001808311610d4357829003601f168201915b505050505090506000610d7e60408051602081019091526000815290565b9050805160001415610d91575092915050565b815115610dc3578082604051602001610dab929190612288565b60405160208183030381529060405292505050919050565b610dcc84611522565b949350505050565b600082815260076020526040902060010154610df0813361139e565b61086e8383611488565b60006001600160e01b031982166380ac58cd60e01b1480610e2b57506001600160e01b03198216635b5e139f60e01b145b806104bd57506301ffc9a760e01b6001600160e01b03198316146104bd565b60006001600160e01b03198216637965db0b60e01b14806104bd57506104bd82610dfa565b6000908152600260205260409020546001600160a01b0316151590565b600080610e98836115f9565b9050610ee581610eab60608601866121bb565b8080601f01602080910402602001604051908101604052809392919081815260200183838082843760009201919091525061168a92505050565b9392505050565b6001600160a01b038216610f425760405162461bcd60e51b815260206004820181905260248201527f4552433732313a206d696e7420746f20746865207a65726f206164647265737360448201526064016105bd565b610f4b81610e6f565b15610f985760405162461bcd60e51b815260206004820152601c60248201527f4552433732313a20746f6b656e20616c7265616479206d696e7465640000000060448201526064016105bd565b6001600160a01b0382166000908152600360205260408120805460019290610fc190849061221f565b909155505060008181526002602052604080822080546001600160a01b0319166001600160a01b03861690811790915590518392907fddf252ad1be2c89b69c2b068fc378daa952ba7f163c4a11628f55a4df523b3ef908290a45050565b61102882610e6f565b61108b5760405162461bcd60e51b815260206004820152602e60248201527f45524337323155524953746f726167653a2055524920736574206f66206e6f6e60448201526d32bc34b9ba32b73a103a37b5b2b760911b60648201526084016105bd565b6000828152600660209081526040909120825161086e92840190611dc2565b826001600160a01b03166110bd82610a28565b6001600160a01b0316146111255760405162461bcd60e51b815260206004820152602960248201527f4552433732313a207472616e73666572206f6620746f6b656e2074686174206960448201526839903737ba1037bbb760b91b60648201526084016105bd565b6001600160a01b0382166111875760405162461bcd60e51b8152602060048201526024808201527f4552433732313a207472616e7366657220746f20746865207a65726f206164646044820152637265737360e01b60648201526084016105bd565b61119260008261124a565b6001600160a01b03831660009081526003602052604081208054600192906111bb9084906122b7565b90915550506001600160a01b03821660009081526003602052604081208054600192906111e990849061221f565b909155505060008181526002602052604080822080546001600160a01b0319166001600160a01b0386811691821790925591518493918716917fddf252ad1be2c89b69c2b068fc378daa952ba7f163c4a11628f55a4df523b3ef91a4505050565b600081815260046020526040902080546001600160a01b0319166001600160a01b038416908117909155819061127f82610a28565b6001600160a01b03167f8c5be1e5ebec7d5bd14f71427d1e84f3dd0314c0f7b2291e5b200ac8c7c3b92560405160405180910390a45050565b60006112c382610e6f565b6113245760405162461bcd60e51b815260206004820152602c60248201527f4552433732313a206f70657261746f7220717565727920666f72206e6f6e657860448201526b34b9ba32b73a103a37b5b2b760a11b60648201526084016105bd565b600061132f83610a28565b9050806001600160a01b0316846001600160a01b0316148061136a5750836001600160a01b031661135f84610555565b6001600160a01b0316145b80610dcc57506001600160a01b0380821660009081526005602090815260408083209388168352929052205460ff16610dcc565b6113a88282610b26565b610944576113c0816001600160a01b03166014611740565b6113cb836020611740565b6040516020016113dc9291906122ce565b60408051601f198184030181529082905262461bcd60e51b82526105bd91600401611ee9565b61140c8282610b26565b6109445760008281526007602090815260408083206001600160a01b03851684529091529020805460ff191660011790556114443390565b6001600160a01b0316816001600160a01b0316837f2f8788117e7eff1d82e926ec794901d17c78024a50270940304540a733656f0d60405160405180910390a45050565b6114928282610b26565b156109445760008281526007602090815260408083206001600160a01b0385168085529252808320805460ff1916905551339285917ff6391f5c32d9c69d2a47ea670b442974b53935d1edc7fd64eb21e047a839171b9190a45050565b6114fa8484846110aa565b611506848484846118dc565b610c575760405162461bcd60e51b81526004016105bd90612343565b606061152d82610e6f565b6115915760405162461bcd60e51b815260206004820152602f60248201527f4552433732314d657461646174613a2055524920717565727920666f72206e6f60448201526e3732bc34b9ba32b73a103a37b5b2b760891b60648201526084016105bd565b60006115a860408051602081019091526000815290565b905060008151116115c85760405180602001604052806000815250610ee5565b806115d2846119da565b6040516020016115e3929190612288565b6040516020818303038152906040529392505050565b60006104bd7f6316f9ddd4d59a364f3b95c26bab9d392c3380ace0fff15e91ed76f0d8bcd15a8335602085013561163360408701876121bb565b604051611641929190612395565b60405190819003812061166f9493929160200193845260208401929092526040830152606082015260800190565b60405160208183030381529060405280519060200120611ad8565b6000806000808451604114156116b45750505060208201516040830151606084015160001a61172a565b8451604014156116e25750505060408201516020830151906001600160ff1b0381169060ff1c601b0161172a565b60405162461bcd60e51b815260206004820152601f60248201527f45434453413a20696e76616c6964207369676e6174757265206c656e6774680060448201526064016105bd565b61173686828585611b26565b9695505050505050565b6060600061174f8360026123a5565b61175a90600261221f565b67ffffffffffffffff81111561177257611772612064565b6040519080825280601f01601f19166020018201604052801561179c576020820181803683370190505b509050600360fc1b816000815181106117b7576117b76123c4565b60200101906001600160f81b031916908160001a905350600f60fb1b816001815181106117e6576117e66123c4565b60200101906001600160f81b031916908160001a905350600061180a8460026123a5565b61181590600161221f565b90505b600181111561188d576f181899199a1a9b1b9c1cb0b131b232b360811b85600f1660108110611849576118496123c4565b1a60f81b82828151811061185f5761185f6123c4565b60200101906001600160f81b031916908160001a90535060049490941c93611886816123da565b9050611818565b508315610ee55760405162461bcd60e51b815260206004820181905260248201527f537472696e67733a20686578206c656e67746820696e73756666696369656e7460448201526064016105bd565b60006001600160a01b0384163b156119cf57604051630a85bd0160e11b81526001600160a01b0385169063150b7a02906119209033908990889088906004016123f1565b6020604051808303816000875af192505050801561195b575060408051601f3d908101601f1916820190925261195891810190612424565b60015b6119b5573d808015611989576040519150601f19603f3d011682016040523d82523d6000602084013e61198e565b606091505b5080516119ad5760405162461bcd60e51b81526004016105bd90612343565b805181602001fd5b6001600160e01b031916630a85bd0160e11b149050610dcc565b506001949350505050565b6060816119fe5750506040805180820190915260018152600360fc1b602082015290565b8160005b8115611a285780611a1281612441565b9150611a219050600a83612472565b9150611a02565b60008167ffffffffffffffff811115611a4357611a43612064565b6040519080825280601f01601f191660200182016040528015611a6d576020820181803683370190505b5090505b8415610dcc57611a826001836122b7565b9150611a8f600a86612486565b611a9a90603061221f565b60f81b818381518110611aaf57611aaf6123c4565b60200101906001600160f81b031916908160001a905350611ad1600a86612472565b9450611a71565b60006104bd611ae5611ccf565b8360405161190160f01b6020820152602281018390526042810182905260009060620160405160208183030381529060405280519060200120905092915050565b60007f7fffffffffffffffffffffffffffffff5d576e7357a4501ddfe92f46681b20a0821115611ba35760405162461bcd60e51b815260206004820152602260248201527f45434453413a20696e76616c6964207369676e6174757265202773272076616c604482015261756560f01b60648201526084016105bd565b8360ff16601b1480611bb857508360ff16601c145b611c0f5760405162461bcd60e51b815260206004820152602260248201527f45434453413a20696e76616c6964207369676e6174757265202776272076616c604482015261756560f01b60648201526084016105bd565b6040805160008082526020820180845288905260ff871692820192909252606081018590526080810184905260019060a0016020604051602081039080840390855afa158015611c63573d6000803e3d6000fd5b5050604051601f1901519150506001600160a01b038116611cc65760405162461bcd60e51b815260206004820152601860248201527f45434453413a20696e76616c6964207369676e6174757265000000000000000060448201526064016105bd565b95945050505050565b60007f0000000000000000000000000000000000000000000000000000000000000000461415611d1e57507f000000000000000000000000000000000000000000000000000000000000000090565b50604080517f00000000000000000000000000000000000000000000000000000000000000006020808301919091527f0000000000000000000000000000000000000000000000000000000000000000828401527f000000000000000000000000000000000000000000000000000000000000000060608301524660808301523060a0808401919091528351808403909101815260c0909201909252805191012090565b828054611dce90612180565b90600052602060002090601f016020900481019282611df05760008555611e36565b82601f10611e0957805160ff1916838001178555611e36565b82800160010185558215611e36579182015b82811115611e36578251825591602001919060010190611e1b565b50611e42929150611e46565b5090565b5b80821115611e425760008155600101611e47565b6001600160e01b031981168114611e7157600080fd5b50565b600060208284031215611e8657600080fd5b8135610ee581611e5b565b60005b83811015611eac578181015183820152602001611e94565b83811115610c575750506000910152565b60008151808452611ed5816020860160208601611e91565b601f01601f19169290920160200192915050565b602081526000610ee56020830184611ebd565b600060208284031215611f0e57600080fd5b5035919050565b80356001600160a01b0381168114611f2c57600080fd5b919050565b60008060408385031215611f4457600080fd5b611f4d83611f15565b9150602083013567ffffffffffffffff811115611f6957600080fd5b830160808186031215611f7b57600080fd5b809150509250929050565b60008060408385031215611f9957600080fd5b611fa283611f15565b946020939093013593505050565b600080600060608486031215611fc557600080fd5b611fce84611f15565b9250611fdc60208501611f15565b9150604084013590509250925092565b60008060408385031215611fff57600080fd5b8235915061200f60208401611f15565b90509250929050565b60006020828403121561202a57600080fd5b610ee582611f15565b6000806040838503121561204657600080fd5b61204f83611f15565b915060208301358015158114611f7b57600080fd5b634e487b7160e01b600052604160045260246000fd5b6000806000806080858703121561209057600080fd5b61209985611f15565b93506120a760208601611f15565b925060408501359150606085013567ffffffffffffffff808211156120cb57600080fd5b818701915087601f8301126120df57600080fd5b8135818111156120f1576120f1612064565b604051601f8201601f19908116603f0116810190838211818310171561211957612119612064565b816040528281528a602084870101111561213257600080fd5b82602086016020830137600060208483010152809550505050505092959194509250565b6000806040838503121561216957600080fd5b61217283611f15565b915061200f60208401611f15565b600181811c9082168061219457607f821691505b602082108114156121b557634e487b7160e01b600052602260045260246000fd5b50919050565b6000808335601e198436030181126121d257600080fd5b83018035915067ffffffffffffffff8211156121ed57600080fd5b60200191503681900382131561220257600080fd5b9250929050565b634e487b7160e01b600052601160045260246000fd5b6000821982111561223257612232612209565b500190565b60208082526031908201527f4552433732313a207472616e736665722063616c6c6572206973206e6f74206f6040820152701ddb995c881b9bdc88185c1c1c9bdd9959607a1b606082015260800190565b6000835161229a818460208801611e91565b8351908301906122ae818360208801611e91565b01949350505050565b6000828210156122c9576122c9612209565b500390565b7f416363657373436f6e74726f6c3a206163636f756e7420000000000000000000815260008351612306816017850160208801611e91565b7001034b99036b4b9b9b4b733903937b6329607d1b6017918401918201528351612337816028840160208801611e91565b01602801949350505050565b60208082526032908201527f4552433732313a207472616e7366657220746f206e6f6e20455243373231526560408201527131b2b4bb32b91034b6b83632b6b2b73a32b960711b606082015260800190565b8183823760009101908152919050565b60008160001904831182151516156123bf576123bf612209565b500290565b634e487b7160e01b600052603260045260246000fd5b6000816123e9576123e9612209565b506000190190565b6001600160a01b038581168252841660208201526040810183905260806060820181905260009061173690830184611ebd565b60006020828403121561243657600080fd5b8151610ee581611e5b565b600060001982141561245557612455612209565b5060010190565b634e487b7160e01b600052601260045260246000fd5b6000826124815761248161245c565b500490565b6000826124955761249561245c565b50069056fea2646970667358221220ca8949183ec8ba3d05b3f519e1e1d3c94964ccd09592e366880488e9d6a8400464736f6c634300080c0033",
  "linkReferences": {},
  "deployedLinkReferences": {}
}